:0600000002001102057967
:03000B0002009C54
:20006A00752200752600752700752800752900752B00752C00752D00754E00E4F54FF5505A
:04008A00C200C201ED
:0300990002000E54
:03000E00020BAB37
:20009C00C0E0C0D0758C10758A00052B74F0252B5005752B00052874F6252850050529754F
:2000BC0028007406B52908752800752900052A74F6252A5005052C752A00749C252C5002A1
:2000DC00D200D0D0D0E032AF827D007E008F037C00C3ED9BEE9C501B7B967C00EB24FFF9A2
:2000FC00EC34FFFA89038A04E94A70F00DBD00DD0E80DA22AF827D007E008F037C00C3ED03
:20011C009BEE9C501B7B107C27EB24FFF9EC34FFFA89038A04E94A70F00DBD00DD0E80DA29
:20013C0022758911758C10758A00D2A9D2AFD28C22E582FFC4540124FF9291EFA2E5E43394
:20015C0024FF9290EF2323540124FF92B7EF23540124FF92B622AF82AD5153050F7E008FB1
:20017C00035303F07C00EB4205EC42068D82C007C00512014D7582021200E3C29275820202
:20019C001200E3D2947582021200E3D005D007C29453050F7E00EFC454F0FF3395E0FCEF8A
:2001BC004205EC42068D5185518212014D7582021200E3D2947582021200E3C29475820281
:2001DC000200E3AF82AD5253050F7E008F035303F07C00EB4205EC42068D82C007C00512A2
:2001FC00014D7582021200E3D2927582021200E3D2947582021200E3D005D007C2945305A7
:20021C000F7E00EFC454F0FF3395E0FCEF4205EC42068D5285528212014D7582021200E3AB
:20023C00D2947582021200E3C2947582020200E3AD82AE83AFF07401B553147582C0C0070C
:20025C00C006C005120172D005D006D0078012758280C007C006C005120172D005D006D095
:20027C00077C0075820AC007C006C005C0041200E3D004D005D006D007EC2DF9E43EFA8FC0
:20029C000389828A838BF0120CA9F582C007C006C005C0041201DFD004D005D006D0070C04
:2002BC00BC110040BE2285820D85830E85F00FE50CC454F0242EFC7B00EB2CF9EB250DFA9E
:2002DC00E4350EFEAF0F8A828E838FF0120CA9F70BBB110040E322AF82750C00900D3775AE
:2002FC00F080C0071202C2D0077E00750C0A8E0D8F828E83C007C006120CFBAC82D006D0BE
:20031C000774302CF52E750C0A750D008F828E83120CC5AE8274302EF52FAD547F00750C8E
:20033C000A8F0D8D828F83C007C006C005120CFBAB82D005D006D00774302BF532750C0A3F
:20035C00750D008D828F83C006120CC5AD82D00674302DF533855634AD557F00750C0A8F8D
:20037C000D8D828F83C007C006C005120CFBAB82D005D006D00774302BF535750C0A750D13
:20039C00008D828F83C006120CC5AD82D00674302DF536753D207430B52E0B74302EF52E1D
:2003BC00752F2E75302022750C01900D4875F0801202C2750C01900D5975F0801202C2AE65
:2003DC00237F00AC2D7D00EEC39CF582EF9DF583750C0A8F0D120CFBAE8274302EF53EAE1E
:2003FC00237F00AC2D7D00EEC39CF582EF9DF583750C0A8F0D120CC5AE8274302EF53FAE33
:20041C00227F00750C648F0D8E828F83120CFBAE8274302EF53AAE227F00750C0A8F0D8E2E
:20043C00828F83120CFB750C0A750D00120CC5AE8274302EF53BAE227F00750C0A8F0D8ECD
:20045C00828F83120CC5AE82AF8374302EF53C7430B53A0280030204E27430B53B2D74303F
:20047C00B53C0A753A30753B20753C2022AE227F00750C0A8F0D8E828F83120CC5AE8274A4
:20049C00302EF53A753B20753C2022AE227F00750C0A8F0D8E828F83120CFB750C0A750D32
:2004BC0000120CC5AE8274302EF53AAE227F00750C0A8F0D8E828F83120CC5AE8274302E8F
:2004DC00F53B753C2022AE227F00750C648F0D8E828F83120CFBAE8274302EF53AAE227F52
:2004FC0000750C0A8F0D8E828F83120CFB750C0A750D00120CC5AE8274302EF53BAE227F0D
:20051C0000750C0A8F0D8E828F83120CC5AE8274302EF53C22AF82BF7910755301900D6AF5
:20053C0075F080C00712024CD007BF6E0C755301900D7B75F08012024C7582460201107598
:20055C00828012017275530090002E75F04012024C75530190003E75F04002024CC021C040
:20057C00E0C0F0C082C083C007C006C005C004C003C002C001C000C0D075D000758203124D
:20059C0000E320B24320952074FFB522057522008016C3E54F9401E55094005009AF227403
:2005BC00022FF5228002052230951DE52270037522FFC3E54F9401E55094005009E522FF88
:2005DC0024FEF52280021522E4F54FF550D0D0D000D001D002D003D004D005D006D007D094
:2005FC0083D082D0F0D0E0D0213220CCFD30CCFD22758201020172AE257F00AC267D00EC79
:20061C002EFEED3FFFC374649E74808FF063F08095F05024120BB3750C64750D00120CC5D5
:20063C00AE828E25120BB3750C64750D00120CC5AE82AF838E2680BFE52D04F582852554C1
:20065C0085265575562B1202F31203C37401B52734AE257F00AC267D00EC2EFEED3FFFAC94
:20067C00227D00ECB50611EDB5070D758279120531052412060D800975826E1205311206FD
:20069C000D052DD20122AE257F00AC267D00EEC39CEF9D30E724120BB3750C64750D00120C
:2006BC000CC5AE828E25120BB3750C64750D00120CC5AE82AF838E2680CCE52D04F58285DC
:2006DC00255485265575562D1202F31203C37401B52735AE257F00AC267D00EEC39CFEEF4D
:2006FC009DFFAC227D00ECB50611EDB5070D758279120531052412060D800975826E12057E
:20071C003112060D052DD201228525F0E526A4FEAFF0C374909E74808FF063F08095F050DA
:20073C0024120BB3750C64750D00120CC5AE828E25120BB3750C64750D00120CC5AE82AF83
:20075C00838E2680C4E52D04F58285255485265575562A1202F31203C37401B5272F852579
:20077C00F0E526A4FEAFF0AC227D00ECB50611EDB5070D758279120531052412060D8009D9
:20079C0075826E12053112060D052DD201228526F0E52584E5F06024120BB3750C64750D8B
:2007BC0000120CC5AE828E25120BB3750C64750D00120CC5AE82AF838E2680D2E52D04F5CA
:2007DC008285255485265575562F1202F31203C37401B527238526F0E52584B5220D75822C
:2007FC0079120531052412060D800975826E12053112060D052DD20122E52475F00AA4FF31
:20081C00C00712060D750C00900D8C75F0801202C2750C01900D9D75F0801202C2D0077E9F
:20083C0000750C648E0D8F828E83C007C006120CFBAC82D006D00774302CF536750C0A757E
:20085C000D008F828E83C007C006120CFB750C0A750D00120CC5AC82D006D00774302CF517
:20087C0037750C0A750D008F828E83120CC5AE8274302EF538753925AF2C74302FF548AF77
:20089C002A74302FF549AF2974302FF54BAF2874302FF54C12055B0206067582011201722E
:2008BC00754E00054FE4B54F020550E54E600302097C75270075230A752400752D00C2006E
:2008DC00C201E4F525F526F529F528F52AF52CE522700BF50C900DAE75F0801202C27401A7
:2008FC00B5220C750C00900DBF75F0801202C27402B5220C750C00900DD075F0801202C25F
:20091C007403B5220C750C00900DE175F0801202C2E52224FC5003752200750C01900D482F
:20093C0075F0801202C220CC4020CC24120BB3750C64750D00120CC5AE828E25120BB37562
:20095C000C64750D00120CC5AE82AF838E2680D9E52204F54E12013D758201120172800993
:20097C0020CC0630CCFD7527017401B54E62120613754E01E523B52D0F758900120815756F
:20099C008201120172754E00300145120BB3750C64750D00120CC5AE828E25120BB3750CAC
:2009BC0064750D00120CC5AE828E26AE257F00AC267D00EC2EFEED3FFFC374FE9E74808F34
:2009DC00F063F08095F040C3C2017527007522007403B54E511207AA754E03E523B52D0F6D
:2009FC00758900120815758201120172754E00300134120BB3750C64750D00120CC5AE82BF
:200A1C008E25120BB3750C64750D00120CC5AE82AF838E268526F0E52584E5F070D4C201D2
:200A3C007527007522007402B54E571206A2754E02E523B52D0F75890012081575820112E8
:200A5C000172754E0030013A120BB3750C64750D00120CC5AE828E25120BB3750C64750DA5
:200A7C0000120CC5AE828E26AE257F00AC267D00EEC39CFEEF9DFF20E7CEC2017527007573
:200A9C0022007404B54E5D120725754E04E523B52D0F758900120815758201120172754ED5
:200ABC0000300140120BB3750C64750D00120CC5AE828E25120BB3750C64750D00120CC592
:200ADC00AE828E268525F0E526A4FEAFF0C374FE9E74808FF063F08095F040C8C20175272B
:200AFC0000752200E54E6033200021AF2C74302FF549AF2A74302FF54A754B3AAF297430EF
:200B1C002FF54CAF2874302FF54D800F754920754A4F754B56754C45754D5212055B020836
:200B3C00BFD295D2CCD2B27582021201727582051200E37582281201727582051200E375D8
:200B5C00820E1201727582051200E37582061201727582051200E375820112017275820587
:200B7C001200E3758280120172D2B2C288D2A8D2AF755300900DF275F08012024C7553013A
:170B9C00900E0375F08012024C758264020110120B3D1208B680FE46
:200D370020202E202020202020203D20202020200020202020202020202020202020202091
:200D570020002020206C6566742120202020202020200020202020202020594553202020FF
:200D770020202000202020202020204E4F2020202020202000594F5520474F542020202018
:200D97002020414E4400594F55522054494D452020203A202020002020312E204164646960
:200DB70074696F6E2020200020322E205375627472616374696F6E2000202020332E20448F
:200DD70069766973696F6E202000342E4D756C7469706C69636174696F6E00204850206251
:1D0DF7007920426F68616E2058752000202020202020323032352020202020200008
:0B008E00750801E4F509F50A750B8008
:200BB300AC08AD09AE0AAF0B8D00EEC313C813C8C313C813C8F9EF030354C049F9EF0303A0
:200BD300543FFA7B00EC6200ED6201EE6202EF6203E828FDE933FEEA33FF7C00E86204E9C0
:200BF3006205EA6206EB6207EFC313F8E4F9FAFBE86204E96205EA6206EB62078C088D09D8
:200C13008E0A8F0B8C82747F5DF58322AE82AF837D007C008E088F098D0A74804CF50B2215
:06004000E478FFF6D8FD94
:20001E007900E94400601B7A00900E14780175A000E493F2A308B8000205A0D9F4DAF27566
:02003E00A0FF21
:200C3300E50C450D60467A01E50C25E0F50CE50D334012F50DE582950CE583950D40030A6E
:200C530080E6C3E50D13F50DE50C13F50CC3E582950CF5F0E583950D4005F58385F082C31B
:0D0C7300E50D13F50DE50C13F50CDAE1228B
:200046007800E84400600A790175A000E4F309D8FC7800E84400600C7900900001E4F0A3B8
:04006600D8FCD9FAEF
:200C80007A10E4FBFCE58225E0F582E58333F583EB33FBEC33FCEB950CF5F0EC950D400680
:090CA000FCABF0438201DADD2215
:0D001100758156120D33E582600302000E6A
:1C0CA90020F71430F6148883A88220F507E6A88375830022E280F7E49322E0225A
:200CC500C2D5E58330E70DD2D5E4C39582F582E49583F583E50D30E70BE4C3950CF50CE45B
:160CE500950DF50D120C3330D50BE4C39582F582E49583F5832229
:200CFB00C2D5E58330E70DD2D5E4C39582F582E49583F583E50D30E70DB2D5E4C3950CF58C
:180D1B000CE4950DF50D120C8030D50BE4C39582F582E49583F58322B3
:040D330075820022A3
:00000001FF
